:1000000000C0012071000000950000009500000074
:100010009500000095000000950000000000000021
:10002000000000000000000000000000950000003B
:100030009500000000000000950000009500000001
:10004000950000004FF0040000F001F8FEE74FF0CB
:1000500000024FF00003834204D082EA030203F15E
:100060000103F8E7114601490A60704700000020CB
:100070000549064A064B9A42BEBF51F8040B42F8A6
:10008000040BF8E7FFF7DEFF9800000000000020F7
:0800900004000020FEE700BFA0
:040098000000000064
:040000030000007188
:00000001FF
